:0400180002080000DA
:03000300020116E1
:0C01160075080075090185800AD2993235
:10010500120006D2ACD2AFC299D288D2A8C29080D2
:01011500FEEB
:030023000200B226
:1000B200C0E0C0D0309913C299E5094508600BE54C
:1000C20009150970021508850A99309831C2987588
:1000D200080075090185990AE50A1460161460176B
:1000E2002405600B24FE6013047013C290800FC2BB
:1000F20091800BD2908007D29180037590FFD0D06F
:03010200D0E03218
:10000600758920759850E4F587758DFD758BFDD241
:020016008E2238
:03000000020026D5
:0C002600787FE4F6D8FD75810A02006DB9
:10003200020105E493A3F8E493A34003F68001F2DE
:1000420008DFF48029E493A3F85407240CC8C333CF
:10005200C4540F4420C8834004F456800146F6DF9E
:10006200E4800B0102040810204080900018E47E16
:10007200019360BCA3FF543F30E509541FFEE49393
:10008200A360010ECF54C025E060A840B8E493A35A
:10009200FAE493A3F8E493A3C8C582C8CAC583CA85
:1000A200F0A3C8C582C8CAC583CADFE9DEE780BE3D
:01001C0000E3
:00000001FF
