:10007500E4F589758E80758A60758CFFD28CD2A95E
:10008500D2B9D2AF1200B575080F7509F9E4F50AB2
:100095000509E509AE087002050814F5828E83E4AA
:1000A50093FF1200CF050AE50AC3940740E280FEDC
:03000B0002000EE2
:10000E00C0E0C0D03002231527E5277028752703DE
:10001E00D52409852123C202D2008019E521C313FC
:10002E00F52130B410432180800B20B408D2027524
:10003E0027047524091528E5287027752803300331
:10004E0021E526700AC2B58525227526098013E59D
:10005E0022C313F522D52608D2B5C203D2018002DF
:07006E0092B5D0D0D0E032C2
:0E00B500C203C202D201C200E4F528F52722E0
:0A00CF003001FDC2018F25D203228B
:030000000200C338
:0C00C300787FE4F6D8FD75813A020075E4
:00000001FF
